{
  "contractName": "LandRegistry",
  "abi": [
    {
      "inputs": [],
      "stateMutability": "nonpayable",
      "type": "constructor"
    },
    {
      "anonymous": false,
      "inputs": [
        {
          "indexed": false,
          "internalType": "uint256",
          "name": "id",
          "type": "uint256"
        },
        {
          "indexed": false,
          "internalType": "uint256",
          "name": "value",
          "type": "uint256"
        }
      ],
      "name": "LandListed",
      "type": "event"
    },
    {
      "anonymous": false,
      "inputs": [
        {
          "indexed": false,
          "internalType": "uint256",
          "name": "id",
          "type": "uint256"
        },
        {
          "indexed": false,
          "internalType": "string",
          "name": "surveyNumber",
          "type": "string"
        },
        {
          "indexed": false,
          "internalType": "address",
          "name": "owner",
          "type": "address"
        }
      ],
      "name": "LandRegistered",
      "type": "event"
    },
    {
      "anonymous": false,
      "inputs": [
        {
          "indexed": false,
          "internalType": "uint256",
          "name": "id",
          "type": "uint256"
        },
        {
          "indexed": false,
          "internalType": "string",
          "name": "surveyNumber",
          "type": "string"
        },
        {
          "indexed": false,
          "internalType": "address",
          "name": "owner",
          "type": "address"
        }
      ],
      "name": "LandRegistrationRequested",
      "type": "event"
    },
    {
      "anonymous": false,
      "inputs": [
        {
          "indexed": false,
          "internalType": "uint256",
          "name": "id",
          "type": "uint256"
        },
        {
          "indexed": false,
          "internalType": "address",
          "name": "from",
          "type": "address"
        },
        {
          "indexed": false,
          "internalType": "address",
          "name": "to",
          "type": "address"
        },
        {
          "indexed": false,
          "internalType": "uint256",
          "name": "stampDuty",
          "type": "uint256"
        }
      ],
      "name": "TransferApproved",
      "type": "event"
    },
    {
      "anonymous": false,
      "inputs": [
        {
          "indexed": false,
          "internalType": "uint256",
          "name": "id",
          "type": "uint256"
        },
        {
          "indexed": false,
          "internalType": "address",
          "name": "from",
          "type": "address"
        },
        {
          "indexed": false,
          "internalType": "address",
          "name": "to",
          "type": "address"
        }
      ],
      "name": "TransferRequested",
      "type": "event"
    },
    {
      "inputs": [],
      "name": "government",
      "outputs": [
        {
          "internalType": "address",
          "name": "",
          "type": "address"
        }
      ],
      "stateMutability": "view",
      "type": "function",
      "constant": true
    },
    {
      "inputs": [],
      "name": "landCount",
      "outputs": [
        {
          "internalType": "uint256",
          "name": "",
          "type": "uint256"
        }
      ],
      "stateMutability": "view",
      "type": "function",
      "constant": true
    },
    {
      "inputs": [
        {
          "internalType": "uint256",
          "name": "",
          "type": "uint256"
        }
      ],
      "name": "lands",
      "outputs": [
        {
          "internalType": "uint256",
          "name": "id",
          "type": "uint256"
        },
        {
          "internalType": "string",
          "name": "surveyNumber",
          "type": "string"
        },
        {
          "internalType": "string",
          "name": "details",
          "type": "string"
        },
        {
          "internalType": "address",
          "name": "owner",
          "type": "address"
        },
        {
          "internalType": "uint256",
          "name": "value",
          "type": "uint256"
        },
        {
          "internalType": "bool",
          "name": "isRegistered",
          "type": "bool"
        },
        {
          "internalType": "bool",
          "name": "isListed",
          "type": "bool"
        }
      ],
      "stateMutability": "view",
      "type": "function",
      "constant": true
    },
    {
      "inputs": [
        {
          "internalType": "uint256",
          "name": "",
          "type": "uint256"
        }
      ],
      "name": "pendingRegistrations",
      "outputs": [
        {
          "internalType": "bool",
          "name": "",
          "type": "bool"
        }
      ],
      "stateMutability": "view",
      "type": "function",
      "constant": true
    },
    {
      "inputs": [
        {
          "internalType": "uint256",
          "name": "",
          "type": "uint256"
        }
      ],
      "name": "pendingTransfers",
      "outputs": [
        {
          "internalType": "address",
          "name": "",
          "type": "address"
        }
      ],
      "stateMutability": "view",
      "type": "function",
      "constant": true
    },
    {
      "inputs": [
        {
          "internalType": "string",
          "name": "_surveyNumber",
          "type": "string"
        },
        {
          "internalType": "string",
          "name": "_details",
          "type": "string"
        }
      ],
      "name": "requestLandRegistration",
      "outputs": [],
      "stateMutability": "nonpayable",
      "type": "function"
    },
    {
      "inputs": [
        {
          "internalType": "uint256",
          "name": "_id",
          "type": "uint256"
        }
      ],
      "name": "approveLandRegistration",
      "outputs": [],
      "stateMutability": "nonpayable",
      "type": "function"
    },
    {
      "inputs": [
        {
          "internalType": "uint256",
          "name": "_id",
          "type": "uint256"
        },
        {
          "internalType": "uint256",
          "name": "_value",
          "type": "uint256"
        }
      ],
      "name": "listLand",
      "outputs": [],
      "stateMutability": "nonpayable",
      "type": "function"
    },
    {
      "inputs": [
        {
          "internalType": "uint256",
          "name": "_id",
          "type": "uint256"
        },
        {
          "internalType": "address",
          "name": "_newOwner",
          "type": "address"
        }
      ],
      "name": "requestTransfer",
      "outputs": [],
      "stateMutability": "nonpayable",
      "type": "function"
    },
    {
      "inputs": [
        {
          "internalType": "uint256",
          "name": "_id",
          "type": "uint256"
        },
        {
          "internalType": "uint256",
          "name": "_stampDuty",
          "type": "uint256"
        }
      ],
      "name": "approveTransfer",
      "outputs": [],
      "stateMutability": "payable",
      "type": "function",
      "payable": true
    },
    {
      "inputs": [
        {
          "internalType": "uint256",
          "name": "_id",
          "type": "uint256"
        }
      ],
      "name": "getLand",
      "outputs": [
        {
          "internalType": "uint256",
          "name": "",
          "type": "uint256"
        },
        {
          "internalType": "string",
          "name": "",
          "type": "string"
        },
        {
          "internalType": "string",
          "name": "",
          "type": "string"
        },
        {
          "internalType": "address",
          "name": "",
          "type": "address"
        },
        {
          "internalType": "uint256",
          "name": "",
          "type": "uint256"
        },
        {
          "internalType": "bool",
          "name": "",
          "type": "bool"
        }
      ],
      "stateMutability": "view",
      "type": "function",
      "constant": true
    }
  ],
  "bytecode": "0x608060405234801561001057600080fd5b50336000806101000a81548173ffffffffffffffffffffffffffffffffffffffff021916908373ffffffffffffffffffffffffffffffffffffffff160217905550611c1a806100606000396000f3fe60806040526004361061009c5760003560e01c8063c217e86511610064578063c217e86514610184578063d7bce658146101a0578063e261f1e5146101cb578063f02dd53f1461020e578063f35fb20914610250578063f9e8aa84146102795761009c565b80632672f526146100a157806340344232146100cc57806349fa1182146100f5578063548832c21461011e5780636577b86a14610147575b600080fd5b3480156100ad57600080fd5b506100b66102b6565b6040516100c3919061160f565b60405180910390f35b3480156100d857600080fd5b506100f360048036038101906100ee91906112f1565b6102da565b005b34801561010157600080fd5b5061011c600480360381019061011791906112c8565b610467565b005b34801561012a57600080fd5b506101456004803603810190610140919061125c565b61062f565b005b34801561015357600080fd5b5061016e600480360381019061016991906112c8565b6107f5565b60405161017b919061160f565b60405180910390f35b61019e6004803603810190610199919061132d565b610828565b005b3480156101ac57600080fd5b506101b5610bc5565b6040516101c29190611725565b60405180910390f35b3480156101d757600080fd5b506101f260048036038101906101ed91906112c8565b610bcb565b6040516102059796959493929190611869565b60405180910390f35b34801561021a57600080fd5b50610235600480360381019061023091906112c8565b610d57565b604051610247969594939291906117fa565b60405180910390f35b34801561025c57600080fd5b506102776004803603810190610272919061132d565b610f7a565b005b34801561028557600080fd5b506102a0600480360381019061029b91906112c8565b611107565b6040516102ad919061162a565b60405180910390f35b60008054906101000a900473ffffffffffffffffffffffffffffffffffffffff1681565b6001600083815260200190815260200160002060050160009054906101000a900460ff1661033d576040517f08c379a000000000000000000000000000000000000000000000000000000000815260040161033490611645565b60405180910390fd5b6001600083815260200190815260200160002060050160019054906101000a900460ff166103a0576040517f08c379a0000000000000000000000000000000000000000000000000000000008152600401610397906116a5565b60405180910390fd5b806004600084815260200190815260200160002060006101000a81548173ffffffffffffffffffffffffffffffffffffffff021916908373ffffffffffffffffffffffffffffffffffffffff1602179055507fad86e5395107a44c23ae10207c8807efe6cd1bfc2980d8c2bcab8f3a24daccd1826001600085815260200190815260200160002060030160009054906101000a900473ffffffffffffffffffffffffffffffffffffffff168360405161045b93929190611740565b60405180910390a15050565b60008054906101000a900473ffffffffffffffffffffffffffffffffffffffff1673ffffffffffffffffffffffffffffffffffffffff163373ffffffffffffffffffffffffffffffffffffffff16146104f5576040517f08c379a00000000000000000000000000000000000000000000000000000000081526004016104ec90611665565b60405180910390fd5b6003600082815260200190815260200160002060009054906101000a900460ff16610555576040517f08c379a000000000000000000000000000000000000000000000000000000000815260040161054c906116c5565b60405180910390fd5b600180600083815260200190815260200160002060050160006101000a81548160ff0219169083151502179055506003600082815260200190815260200160002060006101000a81549060ff02191690557f0a14f5ae2f9ee538270143056894f8128fb116c653fb2fde847dcebdd181622e81600160008481526020019081526020016000206001016001600085815260200190815260200160002060030160009054906101000a900473ffffffffffffffffffffffffffffffffffffffff16604051610624939291906118e6565b60405180910390a150565b6002600081548092919061064290611acf565b91905055506040518060e0016040528060025481526020018381526020018281526020013373ffffffffffffffffffffffffffffffffffffffff16815260200160008152602001600015158152602001600015158152506001600060025481526020019081526020016000206000820151816000015560208201518160010190805190602001906106d4929190611127565b5060408201518160020190805190602001906106f1929190611127565b5060608201518160030160006101000a81548173ffffffffffffffffffffffffffffffffffffffff021916908373ffffffffffffffffffffffffffffffffffffffff1602179055506080820151816004015560a08201518160050160006101000a81548160ff02191690831515021790555060c08201518160050160016101000a81548160ff021916908315150217905550905050600160036000600254815260200190815260200160002060006101000a81548160ff0219169083151502179055507fe32858556d684bfe125b9f0861942fd1b5726eb469df6248686c007fb48f4de260025483336040516107e9939291906117bc565b60405180910390a15050565b60046020528060005260406000206000915054906101000a900473ffffffffffffffffffffffffffffffffffffffff1681565b60008054906101000a900473ffffffffffffffffffffffffffffffffffffffff1673ffffffffffffffffffffffffffffffffffffffff163373ffffffffffffffffffffffffffffffffffffffff16146108b6576040517f08c379a00000000000000000000000000000000000000000000000000000000081526004016108ad90611665565b60405180910390fd5b600073ffffffffffffffffffffffffffffffffffffffff166004600084815260200190815260200160002060009054906101000a900473ffffffffffffffffffffffffffffffffffffffff1673ffffffffffffffffffffffffffffffffffffffff161415610959576040517f08c379a000000000000000000000000000000000000000000000000000000000815260040161095090611685565b60405180910390fd5b8034101561099c576040517f08c379a0000000000000000000000000000000000000000000000000000000008152600401610993906116e5565b60405180910390fd5b60006001600084815260200190815260200160002060030160009054906101000a900473ffffffffffffffffffffffffffffffffffffffff16905060006004600085815260200190815260200160002060009054906101000a900473ffffffffffffffffffffffffffffffffffffffff169050806001600086815260200190815260200160002060030160006101000a81548173ffffffffffffffffffffffffffffffffffffffff021916908373ffffffffffffffffffffffffffffffffffffffff16021790555060006001600086815260200190815260200160002060050160016101000a81548160ff0219169083151502179055506004600085815260200190815260200160002060006101000a81549073ffffffffffffffffffffffffffffffffffffffff021916905560008054906101000a900473ffffffffffffffffffffffffffffffffffffffff1673ffffffffffffffffffffffffffffffffffffffff166108fc849081150290604051600060405180830381858888f19350505050158015610b2f573d6000803e3d6000fd5b508173ffffffffffffffffffffffffffffffffffffffff166108fc8434610b5691906119df565b9081150290604051600060405180830381858888f19350505050158015610b81573d6000803e3d6000fd5b507f816c1edd040fd5b18f4b1aefee3ee9b13d7cc20c303d8a62ee7cdffcb0b129e184838386604051610bb79493929190611777565b60405180910390a150505050565b60025481565b6001602052806000526040600020600091509050806000015490806001018054610bf490611a9d565b80601f0160208091040260200160405190810160405280929190818152602001828054610c2090611a9d565b8015610c6d5780601f10610c4257610100808354040283529160200191610c6d565b820191906000526020600020905b815481529060010190602001808311610c5057829003601f168201915b505050505090806002018054610c8290611a9d565b80601f0160208091040260200160405190810160405280929190818152602001828054610cae90611a9d565b8015610cfb5780601f10610cd057610100808354040283529160200191610cfb565b820191906000526020600020905b815481529060010190602001808311610cde57829003601f168201915b5050505050908060030160009054906101000a900473ffffffffffffffffffffffffffffffffffffffff16908060040154908060050160009054906101000a900460ff16908060050160019054906101000a900460ff16905087565b6000606080600080600080600160008981526020019081526020016000206040518060e001604052908160008201548152602001600182018054610d9a90611a9d565b80601f0160208091040260200160405190810160405280929190818152602001828054610dc690611a9d565b8015610e135780601f10610de857610100808354040283529160200191610e13565b820191906000526020600020905b815481529060010190602001808311610df657829003601f168201915b50505050508152602001600282018054610e2c90611a9d565b80601f0160208091040260200160405190810160405280929190818152602001828054610e5890611a9d565b8015610ea55780601f10610e7a57610100808354040283529160200191610ea5565b820191906000526020600020905b815481529060010190602001808311610e8857829003601f168201915b505050505081526020016003820160009054906101000a900473ffffffffffffffffffffffffffffffffffffffff1673ffffffffffffffffffffffffffffffffffffffff1673ffffffffffffffffffffffffffffffffffffffff168152602001600482015481526020016005820160009054906101000a900460ff161515151581526020016005820160019054906101000a900460ff1615151515815250509050806000015181602001518260400151836060015184608001518560c001519650965096509650965096505091939550919395565b6001600083815260200190815260200160002060050160009054906101000a900460ff16610fdd576040517f08c379a0000000000000000000000000000000000000000000000000000000008152600401610fd490611645565b60405180910390fd5b3373ffffffffffffffffffffffffffffffffffffffff166001600084815260200190815260200160002060030160009054906101000a900473ffffffffffffffffffffffffffffffffffffffff1673ffffffffffffffffffffffffffffffffffffffff1614611081576040517f08c379a000000000000000000000000000000000000000000000000000000000815260040161107890611705565b60405180910390fd5b600180600084815260200190815260200160002060050160016101000a81548160ff0219169083151502179055508060016000848152602001908152602001600020600401819055507f2f9b23898410304c2b8c29547330c8ef08ad5f7c80b5204df939744931e2752082826040516110fb929190611924565b60405180910390a15050565b60036020528060005260406000206000915054906101000a900460ff1681565b82805461113390611a9d565b90600052602060002090601f016020900481019282611155576000855561119c565b82601f1061116e57805160ff191683800117855561119c565b8280016001018555821561119c579182015b8281111561119b578251825591602001919060010190611180565b5b5090506111a991906111ad565b5090565b5b808211156111c65760008160009055506001016111ae565b5090565b60006111dd6111d88461197e565b61194d565b9050828152602081018484840111156111f557600080fd5b611200848285611a5b565b509392505050565b60008135905061121781611bb6565b92915050565b600082601f83011261122e57600080fd5b813561123e8482602086016111ca565b91505092915050565b60008135905061125681611bcd565b92915050565b6000806040838503121561126f57600080fd5b600083013567ffffffffffffffff81111561128957600080fd5b6112958582860161121d565b925050602083013567ffffffffffffffff8111156112b257600080fd5b6112be8582860161121d565b9150509250929050565b6000602082840312156112da57600080fd5b60006112e884828501611247565b91505092915050565b6000806040838503121561130457600080fd5b600061131285828601611247565b925050602061132385828601611208565b9150509250929050565b6000806040838503121561134057600080fd5b600061134e85828601611247565b925050602061135f85828601611247565b9150509250929050565b61137281611a13565b82525050565b61138181611a25565b82525050565b6000611392826119c3565b61139c81856119ce565b93506113ac818560208601611a6a565b6113b581611ba5565b840191505092915050565b600081546113cd81611a9d565b6113d781866119ce565b945060018216600081146113f2576001811461140457611437565b60ff1983168652602086019350611437565b61140d856119ae565b60005b8381101561142f57815481890152600182019150602081019050611410565b808801955050505b50505092915050565b600061144d6013836119ce565b91507f4c616e64206e6f742072656769737465726564000000000000000000000000006000830152602082019050919050565b600061148d601d836119ce565b91507f4f6e6c7920676f7665726e6d656e742063616e2063616c6c20746869730000006000830152602082019050919050565b60006114cd6013836119ce565b91507f4e6f207472616e736665722070656e64696e67000000000000000000000000006000830152602082019050919050565b600061150d600f836119ce565b91507f4c616e64206e6f74206c697374656400000000000000000000000000000000006000830152602082019050919050565b600061154d6014836119ce565b91507f4e6f742070656e64696e6720617070726f76616c0000000000000000000000006000830152602082019050919050565b600061158d6017836119ce565b91507f496e73756666696369656e74207374616d7020647574790000000000000000006000830152602082019050919050565b60006115cd6013836119ce565b91507f4f6e6c79206f776e65722063616e206c697374000000000000000000000000006000830152602082019050919050565b61160981611a51565b82525050565b60006020820190506116246000830184611369565b92915050565b600060208201905061163f6000830184611378565b92915050565b6000602082019050818103600083015261165e81611440565b9050919050565b6000602082019050818103600083015261167e81611480565b9050919050565b6000602082019050818103600083015261169e816114c0565b9050919050565b600060208201905081810360008301526116be81611500565b9050919050565b600060208201905081810360008301526116de81611540565b9050919050565b600060208201905081810360008301526116fe81611580565b9050919050565b6000602082019050818103600083015261171e816115c0565b9050919050565b600060208201905061173a6000830184611600565b92915050565b60006060820190506117556000830186611600565b6117626020830185611369565b61176f6040830184611369565b949350505050565b600060808201905061178c6000830187611600565b6117996020830186611369565b6117a66040830185611369565b6117b36060830184611600565b95945050505050565b60006060820190506117d16000830186611600565b81810360208301526117e38185611387565b90506117f26040830184611369565b949350505050565b600060c08201905061180f6000830189611600565b81810360208301526118218188611387565b905081810360408301526118358187611387565b90506118446060830186611369565b6118516080830185611600565b61185e60a0830184611378565b979650505050505050565b600060e08201905061187e600083018a611600565b81810360208301526118908189611387565b905081810360408301526118a48188611387565b90506118b36060830187611369565b6118c06080830186611600565b6118cd60a0830185611378565b6118da60c0830184611378565b98975050505050505050565b60006060820190506118fb6000830186611600565b818103602083015261190d81856113c0565b905061191c6040830184611369565b949350505050565b60006040820190506119396000830185611600565b6119466020830184611600565b9392505050565b6000604051905081810181811067ffffffffffffffff8211171561197457611973611b76565b5b8060405250919050565b600067ffffffffffffffff82111561199957611998611b76565b5b601f19601f8301169050602081019050919050565b60008190508160005260206000209050919050565b600081519050919050565b600082825260208201905092915050565b60006119ea82611a51565b91506119f583611a51565b925082821015611a0857611a07611b18565b5b828203905092915050565b6000611a1e82611a31565b9050919050565b60008115159050919050565b600073ffffffffffffffffffffffffffffffffffffffff82169050919050565b6000819050919050565b82818337600083830152505050565b60005b83811015611a88578082015181840152602081019050611a6d565b83811115611a97576000848401525b50505050565b60006002820490506001821680611ab557607f821691505b60208210811415611ac957611ac8611b47565b5b50919050565b6000611ada82611a51565b91507fffffffffffffffffffffffffffffffffffffffffffffffffffffffffffffffff821415611b0d57611b0c611b18565b5b600182019050919050565b7f4e487b7100000000000000000000000000000000000000000000000000000000600052601160045260246000fd5b7f4e487b7100000000000000000000000000000000000000000000000000000000600052602260045260246000fd5b7f4e487b7100000000000000000000000000000000000000000000000000000000600052604160045260246000fd5b6000601f19601f8301169050919050565b611bbf81611a13565b8114611bca57600080fd5b50565b611bd681611a51565b8114611be157600080fd5b5056fea2646970667358221220273beb80b92a85c00fcc8a81261a27e89d78415a24f3f21dedc8cdac04e8b6cf64736f6c63430008000033",
  "immutableReferences": {},
  "source": "// SPDX-License-Identifier: MIT\r\npragma solidity ^0.8.0;\r\n\r\ncontract LandRegistry {\r\n    address public government;\r\n\r\n    struct Land {\r\n        uint id;\r\n        string surveyNumber;\r\n        string details;\r\n        address owner;\r\n        uint value; // In wei\r\n        bool isRegistered;\r\n        bool isListed;\r\n    }\r\n\r\n    mapping(uint => Land) public lands;\r\n    uint public landCount;\r\n\r\n    // Pending registrations and transfers\r\n    mapping(uint => bool) public pendingRegistrations;\r\n    mapping(uint => address) public pendingTransfers;\r\n\r\n    event LandRegistrationRequested(uint id, string surveyNumber, address owner);\r\n    event LandRegistered(uint id, string surveyNumber, address owner);\r\n    event LandListed(uint id, uint value);\r\n    event TransferRequested(uint id, address from, address to);\r\n    event TransferApproved(uint id, address from, address to, uint stampDuty);\r\n\r\n    constructor() {\r\n        government = msg.sender; // Deployer is government\r\n    }\r\n\r\n    modifier onlyGovernment() {\r\n        require(msg.sender == government, \"Only government can call this\");\r\n        _;\r\n    }\r\n\r\n    // Register new land (civilian request)\r\n    function requestLandRegistration(string memory _surveyNumber, string memory _details) public {\r\n        landCount++;\r\n        lands[landCount] = Land(landCount, _surveyNumber, _details, msg.sender, 0, false, false);\r\n        pendingRegistrations[landCount] = true;\r\n        emit LandRegistrationRequested(landCount, _surveyNumber, msg.sender);\r\n    }\r\n\r\n    // Government approves registration\r\n    function approveLandRegistration(uint _id) public onlyGovernment {\r\n        require(pendingRegistrations[_id], \"Not pending approval\");\r\n        lands[_id].isRegistered = true;\r\n        delete pendingRegistrations[_id];\r\n        emit LandRegistered(_id, lands[_id].surveyNumber, lands[_id].owner);\r\n    }\r\n\r\n    // List land for sale\r\n    function listLand(uint _id, uint _value) public {\r\n        require(lands[_id].isRegistered, \"Land not registered\");\r\n        require(lands[_id].owner == msg.sender, \"Only owner can list\");\r\n        lands[_id].isListed = true;\r\n        lands[_id].value = _value;\r\n        emit LandListed(_id, _value);\r\n    }\r\n\r\n    // Request land transfer (buy)\r\n    function requestTransfer(uint _id, address _newOwner) public {\r\n        require(lands[_id].isRegistered, \"Land not registered\");\r\n        require(lands[_id].isListed, \"Land not listed\");\r\n        pendingTransfers[_id] = _newOwner;\r\n        emit TransferRequested(_id, lands[_id].owner, _newOwner);\r\n    }\r\n\r\n    // Government approves transfer with stamp duty\r\n    function approveTransfer(uint _id, uint _stampDuty) public onlyGovernment payable {\r\n        require(pendingTransfers[_id] != address(0), \"No transfer pending\");\r\n        require(msg.value >= _stampDuty, \"Insufficient stamp duty\");\r\n\r\n        address oldOwner = lands[_id].owner;\r\n        address newOwner = pendingTransfers[_id];\r\n        lands[_id].owner = newOwner;\r\n        lands[_id].isListed = false;\r\n        delete pendingTransfers[_id];\r\n\r\n        payable(government).transfer(_stampDuty); // Send stamp duty to government\r\n        payable(oldOwner).transfer(msg.value - _stampDuty); // Remaining to seller\r\n\r\n        emit TransferApproved(_id, oldOwner, newOwner, _stampDuty);\r\n    }\r\n\r\n    // Get land details\r\n    function getLand(uint _id) public view returns (uint, string memory, string memory, address, uint, bool) {\r\n        Land memory land = lands[_id];\r\n        return (land.id, land.surveyNumber, land.details, land.owner, land.value, land.isListed);\r\n    }\r\n}",
  "sourcePath": "D:\\Programs\\Land-Registry-Application\\contracts\\LandRegistry.sol",
  "compiler": {
    "name": "solc",
    "version": "0.8.0+commit.c7dfd78e.Emscripten.clang"
  },
  "schemaVersion": "3.4.16",
  "updatedAt": "2025-03-17T17:26:37.355Z",
  "networkType": "ethereum",
  "devdoc": {
    "kind": "dev",
    "methods": {},
    "version": 1
  },
  "userdoc": {
    "kind": "user",
    "methods": {},
    "version": 1
  }
}