{
  "contractName": "LandRegistry",
  "abi": [
    {
      "inputs": [],
      "stateMutability": "nonpayable",
      "type": "constructor"
    },
    {
      "anonymous": false,
      "inputs": [
        {
          "indexed": false,
          "internalType": "uint256",
          "name": "id",
          "type": "uint256"
        },
        {
          "indexed": false,
          "internalType": "uint256",
          "name": "value",
          "type": "uint256"
        }
      ],
      "name": "LandListed",
      "type": "event"
    },
    {
      "anonymous": false,
      "inputs": [
        {
          "indexed": false,
          "internalType": "uint256",
          "name": "id",
          "type": "uint256"
        },
        {
          "indexed": false,
          "internalType": "string",
          "name": "surveyNumber",
          "type": "string"
        },
        {
          "indexed": false,
          "internalType": "address",
          "name": "owner",
          "type": "address"
        }
      ],
      "name": "LandRegistered",
      "type": "event"
    },
    {
      "anonymous": false,
      "inputs": [
        {
          "indexed": false,
          "internalType": "uint256",
          "name": "id",
          "type": "uint256"
        },
        {
          "indexed": false,
          "internalType": "string",
          "name": "surveyNumber",
          "type": "string"
        },
        {
          "indexed": false,
          "internalType": "address",
          "name": "owner",
          "type": "address"
        }
      ],
      "name": "LandRegistrationRequested",
      "type": "event"
    },
    {
      "anonymous": false,
      "inputs": [
        {
          "indexed": false,
          "internalType": "uint256",
          "name": "id",
          "type": "uint256"
        },
        {
          "indexed": false,
          "internalType": "address",
          "name": "from",
          "type": "address"
        },
        {
          "indexed": false,
          "internalType": "address",
          "name": "to",
          "type": "address"
        },
        {
          "indexed": false,
          "internalType": "uint256",
          "name": "stampDuty",
          "type": "uint256"
        }
      ],
      "name": "TransferApproved",
      "type": "event"
    },
    {
      "anonymous": false,
      "inputs": [
        {
          "indexed": false,
          "internalType": "uint256",
          "name": "id",
          "type": "uint256"
        },
        {
          "indexed": false,
          "internalType": "address",
          "name": "from",
          "type": "address"
        },
        {
          "indexed": false,
          "internalType": "address",
          "name": "to",
          "type": "address"
        }
      ],
      "name": "TransferRequested",
      "type": "event"
    },
    {
      "inputs": [],
      "name": "government",
      "outputs": [
        {
          "internalType": "address",
          "name": "",
          "type": "address"
        }
      ],
      "stateMutability": "view",
      "type": "function",
      "constant": true
    },
    {
      "inputs": [
        {
          "internalType": "address",
          "name": "",
          "type": "address"
        }
      ],
      "name": "governmentUsers",
      "outputs": [
        {
          "internalType": "bool",
          "name": "",
          "type": "bool"
        }
      ],
      "stateMutability": "view",
      "type": "function",
      "constant": true
    },
    {
      "inputs": [],
      "name": "landCount",
      "outputs": [
        {
          "internalType": "uint256",
          "name": "",
          "type": "uint256"
        }
      ],
      "stateMutability": "view",
      "type": "function",
      "constant": true
    },
    {
      "inputs": [
        {
          "internalType": "uint256",
          "name": "",
          "type": "uint256"
        }
      ],
      "name": "lands",
      "outputs": [
        {
          "internalType": "uint256",
          "name": "id",
          "type": "uint256"
        },
        {
          "internalType": "string",
          "name": "surveyNumber",
          "type": "string"
        },
        {
          "internalType": "string",
          "name": "details",
          "type": "string"
        },
        {
          "internalType": "address",
          "name": "owner",
          "type": "address"
        },
        {
          "internalType": "uint256",
          "name": "value",
          "type": "uint256"
        },
        {
          "internalType": "bool",
          "name": "isRegistered",
          "type": "bool"
        },
        {
          "internalType": "bool",
          "name": "isListed",
          "type": "bool"
        }
      ],
      "stateMutability": "view",
      "type": "function",
      "constant": true
    },
    {
      "inputs": [
        {
          "internalType": "uint256",
          "name": "",
          "type": "uint256"
        }
      ],
      "name": "pendingRegistrations",
      "outputs": [
        {
          "internalType": "bool",
          "name": "",
          "type": "bool"
        }
      ],
      "stateMutability": "view",
      "type": "function",
      "constant": true
    },
    {
      "inputs": [
        {
          "internalType": "uint256",
          "name": "",
          "type": "uint256"
        }
      ],
      "name": "pendingTransfers",
      "outputs": [
        {
          "internalType": "address",
          "name": "",
          "type": "address"
        }
      ],
      "stateMutability": "view",
      "type": "function",
      "constant": true
    },
    {
      "inputs": [
        {
          "internalType": "address",
          "name": "_gov",
          "type": "address"
        }
      ],
      "name": "addGovernment",
      "outputs": [],
      "stateMutability": "nonpayable",
      "type": "function"
    },
    {
      "inputs": [
        {
          "internalType": "string",
          "name": "_surveyNumber",
          "type": "string"
        },
        {
          "internalType": "string",
          "name": "_details",
          "type": "string"
        }
      ],
      "name": "requestLandRegistration",
      "outputs": [],
      "stateMutability": "nonpayable",
      "type": "function"
    },
    {
      "inputs": [
        {
          "internalType": "uint256",
          "name": "_id",
          "type": "uint256"
        }
      ],
      "name": "approveLandRegistration",
      "outputs": [],
      "stateMutability": "nonpayable",
      "type": "function"
    },
    {
      "inputs": [
        {
          "internalType": "uint256",
          "name": "_id",
          "type": "uint256"
        },
        {
          "internalType": "uint256",
          "name": "_value",
          "type": "uint256"
        }
      ],
      "name": "listLand",
      "outputs": [],
      "stateMutability": "nonpayable",
      "type": "function"
    },
    {
      "inputs": [
        {
          "internalType": "uint256",
          "name": "_id",
          "type": "uint256"
        },
        {
          "internalType": "address",
          "name": "_newOwner",
          "type": "address"
        }
      ],
      "name": "requestTransfer",
      "outputs": [],
      "stateMutability": "nonpayable",
      "type": "function"
    },
    {
      "inputs": [
        {
          "internalType": "uint256",
          "name": "_id",
          "type": "uint256"
        },
        {
          "internalType": "uint256",
          "name": "_stampDuty",
          "type": "uint256"
        }
      ],
      "name": "approveTransfer",
      "outputs": [],
      "stateMutability": "payable",
      "type": "function",
      "payable": true
    },
    {
      "inputs": [
        {
          "internalType": "uint256",
          "name": "_id",
          "type": "uint256"
        }
      ],
      "name": "getLand",
      "outputs": [
        {
          "internalType": "uint256",
          "name": "",
          "type": "uint256"
        },
        {
          "internalType": "string",
          "name": "",
          "type": "string"
        },
        {
          "internalType": "string",
          "name": "",
          "type": "string"
        },
        {
          "internalType": "address",
          "name": "",
          "type": "address"
        },
        {
          "internalType": "uint256",
          "name": "",
          "type": "uint256"
        },
        {
          "internalType": "bool",
          "name": "",
          "type": "bool"
        }
      ],
      "stateMutability": "view",
      "type": "function",
      "constant": true
    }
  ],
  "bytecode": "0x608060405234801561001057600080fd5b50336000806101000a81548173ffffffffffffffffffffffffffffffffffffffff021916908373ffffffffffffffffffffffffffffffffffffffff16021790555060018060003373ffffffffffffffffffffffffffffffffffffffff1673ffffffffffffffffffffffffffffffffffffffff16815260200190815260200160002060006101000a81548160ff021916908315150217905550611dd3806100b76000396000f3fe6080604052600436106100c25760003560e01c8063c217e8651161007f578063e261f1e511610059578063e261f1e514610257578063f02dd53f1461029a578063f35fb209146102dc578063f9e8aa8414610305576100c2565b8063c217e865146101d3578063c4962818146101ef578063d7bce6581461022c576100c2565b80632672f526146100c757806340344232146100f257806349fa11821461011b578063548832c2146101445780636577b86a1461016d57806380d87320146101aa575b600080fd5b3480156100d357600080fd5b506100dc610342565b6040516100e991906117c8565b60405180910390f35b3480156100fe57600080fd5b50610119600480360381019061011491906114aa565b610366565b005b34801561012757600080fd5b50610142600480360381019061013d9190611481565b6104f3565b005b34801561015057600080fd5b5061016b60048036038101906101669190611415565b6106ba565b005b34801561017957600080fd5b50610194600480360381019061018f9190611481565b610880565b6040516101a191906117c8565b60405180910390f35b3480156101b657600080fd5b506101d160048036038101906101cc91906113ec565b6108b3565b005b6101ed60048036038101906101e891906114e6565b610999565b005b3480156101fb57600080fd5b50610216600480360381019061021191906113ec565b610d34565b60405161022391906117e3565b60405180910390f35b34801561023857600080fd5b50610241610d54565b60405161024e91906118de565b60405180910390f35b34801561026357600080fd5b5061027e60048036038101906102799190611481565b610d5a565b6040516102919796959493929190611a22565b60405180910390f35b3480156102a657600080fd5b506102c160048036038101906102bc9190611481565b610ee6565b6040516102d3969594939291906119b3565b60405180910390f35b3480156102e857600080fd5b5061030360048036038101906102fe91906114e6565b611109565b005b34801561031157600080fd5b5061032c60048036038101906103279190611481565b611297565b60405161033991906117e3565b60405180910390f35b60008054906101000a900473ffffffffffffffffffffffffffffffffffffffff1681565b6002600083815260200190815260200160002060050160009054906101000a900460ff166103c9576040517f08c379a00000000000000000000000000000000000000000000000000000000081526004016103c0906117fe565b60405180910390fd5b6002600083815260200190815260200160002060050160019054906101000a900460ff1661042c576040517f08c379a00000000000000000000000000000000000000000000000000000000081526004016104239061185e565b60405180910390fd5b806005600084815260200190815260200160002060006101000a81548173ffffffffffffffffffffffffffffffffffffffff021916908373ffffffffffffffffffffffffffffffffffffffff1602179055507fad86e5395107a44c23ae10207c8807efe6cd1bfc2980d8c2bcab8f3a24daccd1826002600085815260200190815260200160002060030160009054906101000a900473ffffffffffffffffffffffffffffffffffffffff16836040516104e7939291906118f9565b60405180910390a15050565b600160003373ffffffffffffffffffffffffffffffffffffffff1673ffffffffffffffffffffffffffffffffffffffff16815260200190815260200160002060009054906101000a900460ff1661057f576040517f08c379a00000000000000000000000000000000000000000000000000000000081526004016105769061181e565b60405180910390fd5b6004600082815260200190815260200160002060009054906101000a900460ff166105df576040517f08c379a00000000000000000000000000000000000000000000000000000000081526004016105d69061187e565b60405180910390fd5b60016002600083815260200190815260200160002060050160006101000a81548160ff0219169083151502179055506004600082815260200190815260200160002060006101000a81549060ff02191690557f0a14f5ae2f9ee538270143056894f8128fb116c653fb2fde847dcebdd181622e81600260008481526020019081526020016000206001016002600085815260200190815260200160002060030160009054906101000a900473ffffffffffffffffffffffffffffffffffffffff166040516106af93929190611a9f565b60405180910390a150565b600360008154809291906106cd90611c88565b91905055506040518060e0016040528060035481526020018381526020018281526020013373ffffffffffffffffffffffffffffffffffffffff168152602001600081526020016000151581526020016000151581525060026000600354815260200190815260200160002060008201518160000155602082015181600101908051906020019061075f9291906112b7565b50604082015181600201908051906020019061077c9291906112b7565b5060608201518160030160006101000a81548173ffffffffffffffffffffffffffffffffffffffff021916908373ffffffffffffffffffffffffffffffffffffffff1602179055506080820151816004015560a08201518160050160006101000a81548160ff02191690831515021790555060c08201518160050160016101000a81548160ff021916908315150217905550905050600160046000600354815260200190815260200160002060006101000a81548160ff0219169083151502179055507fe32858556d684bfe125b9f0861942fd1b5726eb469df6248686c007fb48f4de2600354833360405161087493929190611975565b60405180910390a15050565b60056020528060005260406000206000915054906101000a900473ffffffffffffffffffffffffffffffffffffffff1681565b600160003373ffffffffffffffffffffffffffffffffffffffff1673ffffffffffffffffffffffffffffffffffffffff16815260200190815260200160002060009054906101000a900460ff1661093f576040517f08c379a00000000000000000000000000000000000000000000000000000000081526004016109369061181e565b60405180910390fd5b60018060008373ffffffffffffffffffffffffffffffffffffffff1673ffffffffffffffffffffffffffffffffffffffff16815260200190815260200160002060006101000a81548160ff02191690831515021790555050565b600160003373ffffffffffffffffffffffffffffffffffffffff1673ffffffffffffffffffffffffffffffffffffffff16815260200190815260200160002060009054906101000a900460ff16610a25576040517f08c379a0000000000000000000000000000000000000000000000000000000008152600401610a1c9061181e565b60405180910390fd5b600073ffffffffffffffffffffffffffffffffffffffff166005600084815260200190815260200160002060009054906101000a900473ffffffffffffffffffffffffffffffffffffffff1673ffffffffffffffffffffffffffffffffffffffff161415610ac8576040517f08c379a0000000000000000000000000000000000000000000000000000000008152600401610abf9061183e565b60405180910390fd5b80341015610b0b576040517f08c379a0000000000000000000000000000000000000000000000000000000008152600401610b029061189e565b60405180910390fd5b60006002600084815260200190815260200160002060030160009054906101000a900473ffffffffffffffffffffffffffffffffffffffff16905060006005600085815260200190815260200160002060009054906101000a900473ffffffffffffffffffffffffffffffffffffffff169050806002600086815260200190815260200160002060030160006101000a81548173ffffffffffffffffffffffffffffffffffffffff021916908373ffffffffffffffffffffffffffffffffffffffff16021790555060006002600086815260200190815260200160002060050160016101000a81548160ff0219169083151502179055506005600085815260200190815260200160002060006101000a81549073ffffffffffffffffffffffffffffffffffffffff021916905560008054906101000a900473ffffffffffffffffffffffffffffffffffffffff1673ffffffffffffffffffffffffffffffffffffffff166108fc849081150290604051600060405180830381858888f19350505050158015610c9e573d6000803e3d6000fd5b508173ffffffffffffffffffffffffffffffffffffffff166108fc8434610cc59190611b98565b9081150290604051600060405180830381858888f19350505050158015610cf0573d6000803e3d6000fd5b507f816c1edd040fd5b18f4b1aefee3ee9b13d7cc20c303d8a62ee7cdffcb0b129e184838386604051610d269493929190611930565b60405180910390a150505050565b60016020528060005260406000206000915054906101000a900460ff1681565b60035481565b6002602052806000526040600020600091509050806000015490806001018054610d8390611c56565b80601f0160208091040260200160405190810160405280929190818152602001828054610daf90611c56565b8015610dfc5780601f10610dd157610100808354040283529160200191610dfc565b820191906000526020600020905b815481529060010190602001808311610ddf57829003601f168201915b505050505090806002018054610e1190611c56565b80601f0160208091040260200160405190810160405280929190818152602001828054610e3d90611c56565b8015610e8a5780601f10610e5f57610100808354040283529160200191610e8a565b820191906000526020600020905b815481529060010190602001808311610e6d57829003601f168201915b5050505050908060030160009054906101000a900473ffffffffffffffffffffffffffffffffffffffff16908060040154908060050160009054906101000a900460ff16908060050160019054906101000a900460ff16905087565b6000606080600080600080600260008981526020019081526020016000206040518060e001604052908160008201548152602001600182018054610f2990611c56565b80601f0160208091040260200160405190810160405280929190818152602001828054610f5590611c56565b8015610fa25780601f10610f7757610100808354040283529160200191610fa2565b820191906000526020600020905b815481529060010190602001808311610f8557829003601f168201915b50505050508152602001600282018054610fbb90611c56565b80601f0160208091040260200160405190810160405280929190818152602001828054610fe790611c56565b80156110345780601f1061100957610100808354040283529160200191611034565b820191906000526020600020905b81548152906001019060200180831161101757829003601f168201915b505050505081526020016003820160009054906101000a900473ffffffffffffffffffffffffffffffffffffffff1673ffffffffffffffffffffffffffffffffffffffff1673ffffffffffffffffffffffffffffffffffffffff168152602001600482015481526020016005820160009054906101000a900460ff161515151581526020016005820160019054906101000a900460ff1615151515815250509050806000015181602001518260400151836060015184608001518560c001519650965096509650965096505091939550919395565b6002600083815260200190815260200160002060050160009054906101000a900460ff1661116c576040517f08c379a0000000000000000000000000000000000000000000000000000000008152600401611163906117fe565b60405180910390fd5b3373ffffffffffffffffffffffffffffffffffffffff166002600084815260200190815260200160002060030160009054906101000a900473ffffffffffffffffffffffffffffffffffffffff1673ffffffffffffffffffffffffffffffffffffffff1614611210576040517f08c379a0000000000000000000000000000000000000000000000000000000008152600401611207906118be565b60405180910390fd5b60016002600084815260200190815260200160002060050160016101000a81548160ff0219169083151502179055508060026000848152602001908152602001600020600401819055507f2f9b23898410304c2b8c29547330c8ef08ad5f7c80b5204df939744931e27520828260405161128b929190611add565b60405180910390a15050565b60046020528060005260406000206000915054906101000a900460ff1681565b8280546112c390611c56565b90600052602060002090601f0160209004810192826112e5576000855561132c565b82601f106112fe57805160ff191683800117855561132c565b8280016001018555821561132c579182015b8281111561132b578251825591602001919060010190611310565b5b509050611339919061133d565b5090565b5b8082111561135657600081600090555060010161133e565b5090565b600061136d61136884611b37565b611b06565b90508281526020810184848401111561138557600080fd5b611390848285611c14565b509392505050565b6000813590506113a781611d6f565b92915050565b600082601f8301126113be57600080fd5b81356113ce84826020860161135a565b91505092915050565b6000813590506113e681611d86565b92915050565b6000602082840312156113fe57600080fd5b600061140c84828501611398565b91505092915050565b6000806040838503121561142857600080fd5b600083013567ffffffffffffffff81111561144257600080fd5b61144e858286016113ad565b925050602083013567ffffffffffffffff81111561146b57600080fd5b611477858286016113ad565b9150509250929050565b60006020828403121561149357600080fd5b60006114a1848285016113d7565b91505092915050565b600080604083850312156114bd57600080fd5b60006114cb858286016113d7565b92505060206114dc85828601611398565b9150509250929050565b600080604083850312156114f957600080fd5b6000611507858286016113d7565b9250506020611518858286016113d7565b9150509250929050565b61152b81611bcc565b82525050565b61153a81611bde565b82525050565b600061154b82611b7c565b6115558185611b87565b9350611565818560208601611c23565b61156e81611d5e565b840191505092915050565b6000815461158681611c56565b6115908186611b87565b945060018216600081146115ab57600181146115bd576115f0565b60ff19831686526020860193506115f0565b6115c685611b67565b60005b838110156115e8578154818901526001820191506020810190506115c9565b808801955050505b50505092915050565b6000611606601383611b87565b91507f4c616e64206e6f742072656769737465726564000000000000000000000000006000830152602082019050919050565b6000611646601d83611b87565b91507f4f6e6c7920676f7665726e6d656e742063616e2063616c6c20746869730000006000830152602082019050919050565b6000611686601383611b87565b91507f4e6f207472616e736665722070656e64696e67000000000000000000000000006000830152602082019050919050565b60006116c6600f83611b87565b91507f4c616e64206e6f74206c697374656400000000000000000000000000000000006000830152602082019050919050565b6000611706601483611b87565b91507f4e6f742070656e64696e6720617070726f76616c0000000000000000000000006000830152602082019050919050565b6000611746601783611b87565b91507f496e73756666696369656e74207374616d7020647574790000000000000000006000830152602082019050919050565b6000611786601383611b87565b91507f4f6e6c79206f776e65722063616e206c697374000000000000000000000000006000830152602082019050919050565b6117c281611c0a565b82525050565b60006020820190506117dd6000830184611522565b92915050565b60006020820190506117f86000830184611531565b92915050565b60006020820190508181036000830152611817816115f9565b9050919050565b6000602082019050818103600083015261183781611639565b9050919050565b6000602082019050818103600083015261185781611679565b9050919050565b60006020820190508181036000830152611877816116b9565b9050919050565b60006020820190508181036000830152611897816116f9565b9050919050565b600060208201905081810360008301526118b781611739565b9050919050565b600060208201905081810360008301526118d781611779565b9050919050565b60006020820190506118f360008301846117b9565b92915050565b600060608201905061190e60008301866117b9565b61191b6020830185611522565b6119286040830184611522565b949350505050565b600060808201905061194560008301876117b9565b6119526020830186611522565b61195f6040830185611522565b61196c60608301846117b9565b95945050505050565b600060608201905061198a60008301866117b9565b818103602083015261199c8185611540565b90506119ab6040830184611522565b949350505050565b600060c0820190506119c860008301896117b9565b81810360208301526119da8188611540565b905081810360408301526119ee8187611540565b90506119fd6060830186611522565b611a0a60808301856117b9565b611a1760a0830184611531565b979650505050505050565b600060e082019050611a37600083018a6117b9565b8181036020830152611a498189611540565b90508181036040830152611a5d8188611540565b9050611a6c6060830187611522565b611a7960808301866117b9565b611a8660a0830185611531565b611a9360c0830184611531565b98975050505050505050565b6000606082019050611ab460008301866117b9565b8181036020830152611ac68185611579565b9050611ad56040830184611522565b949350505050565b6000604082019050611af260008301856117b9565b611aff60208301846117b9565b9392505050565b6000604051905081810181811067ffffffffffffffff82111715611b2d57611b2c611d2f565b5b8060405250919050565b600067ffffffffffffffff821115611b5257611b51611d2f565b5b601f19601f8301169050602081019050919050565b60008190508160005260206000209050919050565b600081519050919050565b600082825260208201905092915050565b6000611ba382611c0a565b9150611bae83611c0a565b925082821015611bc157611bc0611cd1565b5b828203905092915050565b6000611bd782611bea565b9050919050565b60008115159050919050565b600073ffffffffffffffffffffffffffffffffffffffff82169050919050565b6000819050919050565b82818337600083830152505050565b60005b83811015611c41578082015181840152602081019050611c26565b83811115611c50576000848401525b50505050565b60006002820490506001821680611c6e57607f821691505b60208210811415611c8257611c81611d00565b5b50919050565b6000611c9382611c0a565b91507fffffffffffffffffffffffffffffffffffffffffffffffffffffffffffffffff821415611cc657611cc5611cd1565b5b600182019050919050565b7f4e487b7100000000000000000000000000000000000000000000000000000000600052601160045260246000fd5b7f4e487b7100000000000000000000000000000000000000000000000000000000600052602260045260246000fd5b7f4e487b7100000000000000000000000000000000000000000000000000000000600052604160045260246000fd5b6000601f19601f8301169050919050565b611d7881611bcc565b8114611d8357600080fd5b50565b611d8f81611c0a565b8114611d9a57600080fd5b5056fea2646970667358221220fc155beaa4926901ea88c63df92c7fbb7dcec5ba15331731534f78e889f03ba664736f6c63430008000033",
  "immutableReferences": {},
  "source": "// SPDX-License-Identifier: MIT\r\npragma solidity ^0.8.0;\r\n\r\ncontract LandRegistry {\r\n    address public government; // Original deployer\r\n    mapping(address => bool) public governmentUsers; // Multiple government users\r\n\r\n    struct Land {\r\n        uint id;\r\n        string surveyNumber;\r\n        string details;\r\n        address owner;\r\n        uint value; // In wei\r\n        bool isRegistered;\r\n        bool isListed;\r\n    }\r\n\r\n    mapping(uint => Land) public lands;\r\n    uint public landCount;\r\n\r\n    // Pending registrations and transfers\r\n    mapping(uint => bool) public pendingRegistrations;\r\n    mapping(uint => address) public pendingTransfers;\r\n\r\n    event LandRegistrationRequested(uint id, string surveyNumber, address owner);\r\n    event LandRegistered(uint id, string surveyNumber, address owner);\r\n    event LandListed(uint id, uint value);\r\n    event TransferRequested(uint id, address from, address to);\r\n    event TransferApproved(uint id, address from, address to, uint stampDuty);\r\n\r\n    constructor() {\r\n        government = msg.sender; // Deployer is the initial government\r\n        governmentUsers[msg.sender] = true; // Add deployer to government users\r\n    }\r\n\r\n    modifier onlyGovernment() {\r\n        require(governmentUsers[msg.sender], \"Only government can call this\");\r\n        _;\r\n    }\r\n\r\n    // Add a new government user\r\n    function addGovernment(address _gov) public onlyGovernment {\r\n        governmentUsers[_gov] = true;\r\n    }\r\n\r\n    // Register new land (civilian request)\r\n    function requestLandRegistration(string memory _surveyNumber, string memory _details) public {\r\n        landCount++;\r\n        lands[landCount] = Land(landCount, _surveyNumber, _details, msg.sender, 0, false, false);\r\n        pendingRegistrations[landCount] = true;\r\n        emit LandRegistrationRequested(landCount, _surveyNumber, msg.sender);\r\n    }\r\n\r\n    // Government approves registration\r\n    function approveLandRegistration(uint _id) public onlyGovernment {\r\n        require(pendingRegistrations[_id], \"Not pending approval\");\r\n        lands[_id].isRegistered = true;\r\n        delete pendingRegistrations[_id];\r\n        emit LandRegistered(_id, lands[_id].surveyNumber, lands[_id].owner);\r\n    }\r\n\r\n    // List land for sale\r\n    function listLand(uint _id, uint _value) public {\r\n        require(lands[_id].isRegistered, \"Land not registered\");\r\n        require(lands[_id].owner == msg.sender, \"Only owner can list\");\r\n        lands[_id].isListed = true;\r\n        lands[_id].value = _value;\r\n        emit LandListed(_id, _value);\r\n    }\r\n\r\n    // Request land transfer (buy)\r\n    function requestTransfer(uint _id, address _newOwner) public {\r\n        require(lands[_id].isRegistered, \"Land not registered\");\r\n        require(lands[_id].isListed, \"Land not listed\");\r\n        pendingTransfers[_id] = _newOwner;\r\n        emit TransferRequested(_id, lands[_id].owner, _newOwner);\r\n    }\r\n\r\n    // Government approves transfer with stamp duty\r\n    function approveTransfer(uint _id, uint _stampDuty) public onlyGovernment payable {\r\n        require(pendingTransfers[_id] != address(0), \"No transfer pending\");\r\n        require(msg.value >= _stampDuty, \"Insufficient stamp duty\");\r\n\r\n        address oldOwner = lands[_id].owner;\r\n        address newOwner = pendingTransfers[_id];\r\n        lands[_id].owner = newOwner;\r\n        lands[_id].isListed = false;\r\n        delete pendingTransfers[_id];\r\n\r\n        payable(government).transfer(_stampDuty); // Send stamp duty to government\r\n        payable(oldOwner).transfer(msg.value - _stampDuty); // Remaining to seller\r\n\r\n        emit TransferApproved(_id, oldOwner, newOwner, _stampDuty);\r\n    }\r\n\r\n    // Get land details\r\n    function getLand(uint _id) public view returns (uint, string memory, string memory, address, uint, bool) {\r\n        Land memory land = lands[_id];\r\n        return (land.id, land.surveyNumber, land.details, land.owner, land.value, land.isListed);\r\n    }\r\n}",
  "sourcePath": "D:\\Programs\\Land-Registry-Application\\contracts\\LandRegistry.sol",
  "compiler": {
    "name": "solc",
    "version": "0.8.0+commit.c7dfd78e.Emscripten.clang"
  },
  "schemaVersion": "3.4.16",
  "updatedAt": "2025-03-18T04:23:04.937Z",
  "networkType": "ethereum",
  "devdoc": {
    "kind": "dev",
    "methods": {},
    "version": 1
  },
  "userdoc": {
    "kind": "user",
    "methods": {},
    "version": 1
  }
}